:100000000C9461000C9473000C9473000C947300B6
:100010000C9473000C9473000C9473000C94730094
:100020000C9473000C9473000C9473000C94730084
:100030000C9473000C9473000C9473000C94730074
:100040000C9426010C9473000C9473000C947300B0
:100050000C9473000C9473000C9473000C94730054
:100060000C9473000C94730000000000240027001F
:100070002A0000000000250028002B0000000000DE
:1000800023002600290004040404040404040202DA
:100090000202020203030303030301020408102007
:1000A0004080010204081020010204081020000012
:1000B0000008000201000003040700000000000027
:1000C000000011241FBECFEFD8E0DEBFCDBF21E07E
:1000D000A0E0B1E001C01D92A131B207E1F70E949A
:1000E00070010C947B020C940000833081F028F4A2
:1000F000813099F08230A9F008958730A9F08830D6
:10010000C9F08430B1F4809180008F7D03C080916C
:1001100080008F7780938000089584B58F7784BDA9
:10012000089584B58F7DFBCF8091B0008F77809349
:10013000B00008958091B0008F7DF9CFCF93DF9309
:10014000282F30E0F901E255FF4F8491F901E6567E
:10015000FF4FD491F901EA57FF4FC491CC23A1F08E
:1001600081110E947500EC2FF0E0EE0FFF1FE458A4
:10017000FF4FA591B491EC91ED2381E090E009F45B
:1001800080E0DF91CF91089580E090E0FACF1F9357
:10019000CF93DF93282F30E0F901E255FF4F849190
:1001A000F901E656FF4FD491F901EA57FF4FC49188
:1001B000CC23A9F0162F81110E947500EC2FF0E0DE
:1001C000EE0FFF1FEE58FF4FA591B4918FB7F89433
:1001D000EC91111108C0D095DE23DC938FBFDF9125
:1001E000CF911F910895DE2BF8CFCF93DF9390E04E
:1001F000FC01E656FF4F24918A579F4FFC018491E2
:100200008823D1F090E0880F991FFC01E859FF4F37
:10021000A591B491FC01EE58FF4FC591D4916111A5
:100220000EC09FB7F8948C91E22FE0958E238C93AB
:100230002881E223E8839FBFDF91CF9108958FB794
:10024000F894EC91E22BEC938FBFF6CF1F920F92B4
:100250000FB60F9211242F933F938F939F93AF93D9
:10026000BF9380910D0190910E01A0910F01B0916B
:10027000100130910C0123E0230F2D3758F5019622
:10028000A11DB11D20930C0180930D0190930E01CF
:10029000A0930F01B0931001809108019091090182
:1002A000A0910A01B0910B010196A11DB11D80938F
:1002B000080190930901A0930A01B0930B01BF912B
:1002C000AF919F918F913F912F910F900FBE0F9003
:1002D0001F90189526E8230F0296A11DB11DD2CFBD
:1002E000789484B5826084BD84B5816084BD85B511
:1002F000826085BD85B5816085BD80916E0081601D
:1003000080936E00109281008091810082608093C2
:1003100081008091810081608093810080918000C4
:100320008160809380008091B10084608093B100EF
:100330008091B00081608093B00080917A008460E9
:1003400080937A0080917A00826080937A00809115
:100350007A00816080937A0080917A00806880932F
:100360007A001092C10060E08BE00E94F50061E02D
:1003700084E00E94F50060E08AE00E94F50061E000
:1003800085E00E94F50060E089E00E94F50061E0F0
:1003900086E00E94F50060E088E00E94F50061E0E0
:1003A00087E00E94F50080E0A82E80E0B82E8BE068
:1003B0000E949E007C0190930701809306018AE0D1
:1003C0000E949E006C01909305018093040189E0D6
:1003D0000E949E00EC01909303018093020188E04B
:1003E0000E949E008C019093010180930001E11412
:1003F000F10401F5209731F0892B49F0C114D104A3
:1004000031F41DC0C114D104D1F0892BC1F061E0D9
:1004100084E00E94C700C114D10409F051C02097A4
:1004200009F054C001151105B1F0E114F10499F07F
:1004300060E012C0C114D10421F0209741F360E0C4
:10044000E7CF209721F7892BD1F7E1CF209719F03B
:100450000115110569F361E085E00E94C700C11430
:10046000D104E9F52097B9F10115110539F060E0E3
:1004700006C02097E1F701151105C9F361E086E098
:100480000E94C700CD2879F4CD2B91F5012B69F19D
:1004900061E087E00E94C700A114B10409F487CF8E
:1004A0000E94000084CFEF2831F4CD2B11F0012BF6
:1004B00079F360E0EECFCD2BE1F7012BD1F3E8CF5C
:1004C000E114F10419F6209719F6B2CFE114F10402
:1004D00009F4BECFADCFE114F10449F2CCCFE11461
:1004E000F10439F6209751F2C6CFEF2811F3D0CF9F
:0A04F000EF28E9F2DECFF894FFCF09
:00000001FF
